{
  "contractName": "Insurance",
  "abi": [
    {
      "inputs": [],
      "stateMutability": "nonpayable",
      "type": "constructor"
    },
    {
      "inputs": [],
      "name": "admin",
      "outputs": [
        {
          "internalType": "address",
          "name": "",
          "type": "address"
        }
      ],
      "stateMutability": "view",
      "type": "function",
      "constant": true
    },
    {
      "inputs": [
        {
          "internalType": "uint256",
          "name": "",
          "type": "uint256"
        }
      ],
      "name": "policies",
      "outputs": [
        {
          "internalType": "uint256",
          "name": "id",
          "type": "uint256"
        },
        {
          "internalType": "string",
          "name": "name",
          "type": "string"
        },
        {
          "internalType": "uint256",
          "name": "price",
          "type": "uint256"
        },
        {
          "internalType": "uint256",
          "name": "coverageAmount",
          "type": "uint256"
        },
        {
          "internalType": "string",
          "name": "coverage",
          "type": "string"
        },
        {
          "internalType": "uint256",
          "name": "premiumDuration",
          "type": "uint256"
        }
      ],
      "stateMutability": "view",
      "type": "function",
      "constant": true
    },
    {
      "inputs": [],
      "name": "policyCount",
      "outputs": [
        {
          "internalType": "uint256",
          "name": "",
          "type": "uint256"
        }
      ],
      "stateMutability": "view",
      "type": "function",
      "constant": true
    },
    {
      "inputs": [
        {
          "internalType": "uint256",
          "name": "",
          "type": "uint256"
        },
        {
          "internalType": "address",
          "name": "",
          "type": "address"
        }
      ],
      "name": "policyHolders",
      "outputs": [
        {
          "internalType": "address",
          "name": "buyer",
          "type": "address"
        },
        {
          "internalType": "uint256",
          "name": "lastPaymentTimestamp",
          "type": "uint256"
        },
        {
          "internalType": "bool",
          "name": "claimed",
          "type": "bool"
        }
      ],
      "stateMutability": "view",
      "type": "function",
      "constant": true
    },
    {
      "inputs": [
        {
          "internalType": "string",
          "name": "_name",
          "type": "string"
        },
        {
          "internalType": "uint256",
          "name": "_price",
          "type": "uint256"
        },
        {
          "internalType": "uint256",
          "name": "_coverageAmount",
          "type": "uint256"
        },
        {
          "internalType": "string",
          "name": "_coverage",
          "type": "string"
        },
        {
          "internalType": "uint256",
          "name": "_premiumDuration",
          "type": "uint256"
        }
      ],
      "name": "createPolicy",
      "outputs": [],
      "stateMutability": "nonpayable",
      "type": "function"
    },
    {
      "inputs": [
        {
          "internalType": "uint256",
          "name": "_id",
          "type": "uint256"
        }
      ],
      "name": "buyPolicy",
      "outputs": [],
      "stateMutability": "payable",
      "type": "function",
      "payable": true
    },
    {
      "inputs": [
        {
          "internalType": "uint256",
          "name": "_id",
          "type": "uint256"
        }
      ],
      "name": "payPremium",
      "outputs": [],
      "stateMutability": "payable",
      "type": "function",
      "payable": true
    },
    {
      "inputs": [
        {
          "internalType": "uint256",
          "name": "_id",
          "type": "uint256"
        }
      ],
      "name": "claimPolicy",
      "outputs": [],
      "stateMutability": "nonpayable",
      "type": "function"
    },
    {
      "inputs": [
        {
          "internalType": "uint256",
          "name": "_id",
          "type": "uint256"
        },
        {
          "internalType": "address",
          "name": "_buyer",
          "type": "address"
        }
      ],
      "name": "isOverdue",
      "outputs": [
        {
          "internalType": "bool",
          "name": "",
          "type": "bool"
        }
      ],
      "stateMutability": "view",
      "type": "function",
      "constant": true
    },
    {
      "inputs": [],
      "name": "getContractBalance",
      "outputs": [
        {
          "internalType": "uint256",
          "name": "",
          "type": "uint256"
        }
      ],
      "stateMutability": "view",
      "type": "function",
      "constant": true
    },
    {
      "inputs": [],
      "name": "withdrawFunds",
      "outputs": [],
      "stateMutability": "nonpayable",
      "type": "function"
    }
  ],
  "bytecode": "0x60806040525f8055348015610012575f80fd5b503360035f6101000a81548173ffffffffffffffffffffffffffffffffffffffff021916908373ffffffffffffffffffffffffffffffffffffffff160217905550611b85806100605f395ff3fe60806040526004361061009b575f3560e01c806379c888941161006357806379c8889414610161578063c8102fda1461017d578063d3e89483146101a5578063de54d429146101e6578063f7690d2b14610210578063f851a4401461024c5761009b565b806324600fc31461009f578063289b7c51146100b55780632aea118d146100f35780634364b26e1461011b5780636f9fb98a14610137575b5f80fd5b3480156100aa575f80fd5b506100b3610276565b005b3480156100c0575f80fd5b506100db60048036038101906100d69190610f6a565b61036c565b6040516100ea93929190610fe0565b60405180910390f35b3480156100fe575f80fd5b5061011960048036038101906101149190611015565b6103c8565b005b61013560048036038101906101309190611015565b610609565b005b348015610142575f80fd5b5061014b61084a565b6040516101589190611040565b60405180910390f35b61017b60048036038101906101769190611015565b6108e0565b005b348015610188575f80fd5b506101a3600480360381019061019e9190611195565b610b09565b005b3480156101b0575f80fd5b506101cb60048036038101906101c69190611015565b610c4a565b6040516101dd969594939291906112be565b60405180910390f35b3480156101f1575f80fd5b506101fa610d8e565b6040516102079190611040565b60405180910390f35b34801561021b575f80fd5b5061023660048036038101906102319190610f6a565b610d93565b604051610243919061132b565b60405180910390f35b348015610257575f80fd5b50610260610ea7565b60405161026d9190611344565b60405180910390f35b60035f9054906101000a900473ffffffffffffffffffffffffffffffffffffffff1673ffffffffffffffffffffffffffffffffffffffff163373ffffffffffffffffffffffffffffffffffffffff1614610305576040517f08c379a00000000000000000000000000000000000000000000000000000000081526004016102fc906113a7565b60405180910390fd5b60035f9054906101000a900473ffffffffffffffffffffffffffffffffffffffff1673ffffffffffffffffffffffffffffffffffffffff166108fc4790811502906040515f60405180830381858888f19350505050158015610369573d5f803e3d5ffd5b50565b6002602052815f5260405f20602052805f5260405f205f9150915050805f015f9054906101000a900473ffffffffffffffffffffffffffffffffffffffff1690806001015490806002015f9054906101000a900460ff16905083565b805f73ffffffffffffffffffffffffffffffffffffffff1660025f8381526020019081526020015f205f3373ffffffffffffffffffffffffffffffffffffffff1673ffffffffffffffffffffffffffffffffffffffff1681526020019081526020015f205f015f9054906101000a900473ffffffffffffffffffffffffffffffffffffffff1673ffffffffffffffffffffffffffffffffffffffff16036104a4576040517f08c379a000000000000000000000000000000000000000000000000000000000815260040161049b9061140f565b60405180910390fd5b5f60015f8481526020019081526020015f2090505f60025f8581526020019081526020015f205f3373ffffffffffffffffffffffffffffffffffffffff1673ffffffffffffffffffffffffffffffffffffffff1681526020019081526020015f209050806002015f9054906101000a900460ff1615610558576040517f08c379a000000000000000000000000000000000000000000000000000000000815260040161054f90611477565b60405180910390fd5b816003015447101561059f576040517f08c379a000000000000000000000000000000000000000000000000000000000815260040161059690611505565b60405180910390fd5b6001816002015f6101000a81548160ff0219169083151502179055503373ffffffffffffffffffffffffffffffffffffffff166108fc836003015490811502906040515f60405180830381858888f19350505050158015610602573d5f803e3d5ffd5b5050505050565b805f73ffffffffffffffffffffffffffffffffffffffff1660025f8381526020019081526020015f205f3373ffffffffffffffffffffffffffffffffffffffff1673ffffffffffffffffffffffffffffffffffffffff1681526020019081526020015f205f015f9054906101000a900473ffffffffffffffffffffffffffffffffffffffff1673ffffffffffffffffffffffffffffffffffffffff16036106e5576040517f08c379a00000000000000000000000000000000000000000000000000000000081526004016106dc9061140f565b60405180910390fd5b5f60015f8481526020019081526020015f2090505f60025f8581526020019081526020015f205f3373ffffffffffffffffffffffffffffffffffffffff1673ffffffffffffffffffffffffffffffffffffffff1681526020019081526020015f209050806002015f9054906101000a900460ff1615610799576040517f08c379a00000000000000000000000000000000000000000000000000000000081526004016107909061156d565b60405180910390fd5b5f826005015482600101546107ae91906115b8565b9050804210156107f3576040517f08c379a00000000000000000000000000000000000000000000000000000000081526004016107ea90611635565b60405180910390fd5b826002015434101561083a576040517f08c379a0000000000000000000000000000000000000000000000000000000008152600401610831906116c3565b60405180910390fd5b4282600101819055505050505050565b5f60035f9054906101000a900473ffffffffffffffffffffffffffffffffffffffff1673ffffffffffffffffffffffffffffffffffffffff163373ffffffffffffffffffffffffffffffffffffffff16146108da576040517f08c379a00000000000000000000000000000000000000000000000000000000081526004016108d1906113a7565b60405180910390fd5b47905090565b5f60015f8381526020019081526020015f209050806002015434101561093b576040517f08c379a000000000000000000000000000000000000000000000000000000000815260040161093290611751565b60405180910390fd5b5f73ffffffffffffffffffffffffffffffffffffffff1660025f8481526020019081526020015f205f3373ffffffffffffffffffffffffffffffffffffffff1673ffffffffffffffffffffffffffffffffffffffff1681526020019081526020015f205f015f9054906101000a900473ffffffffffffffffffffffffffffffffffffffff1673ffffffffffffffffffffffffffffffffffffffff1614610a16576040517f08c379a0000000000000000000000000000000000000000000000000000000008152600401610a0d906117b9565b60405180910390fd5b60405180606001604052803373ffffffffffffffffffffffffffffffffffffffff1681526020014281526020015f151581525060025f8481526020019081526020015f205f3373ffffffffffffffffffffffffffffffffffffffff1673ffffffffffffffffffffffffffffffffffffffff1681526020019081526020015f205f820151815f015f6101000a81548173ffffffffffffffffffffffffffffffffffffffff021916908373ffffffffffffffffffffffffffffffffffffffff160217905550602082015181600101556040820151816002015f6101000a81548160ff0219169083151502179055509050505050565b60035f9054906101000a900473ffffffffffffffffffffffffffffffffffffffff1673ffffffffffffffffffffffffffffffffffffffff163373ffffffffffffffffffffffffffffffffffffffff1614610b98576040517f08c379a0000000000000000000000000000000000000000000000000000000008152600401610b8f906113a7565b60405180910390fd5b5f80815480929190610ba9906117d7565b91905055506040518060c001604052805f5481526020018681526020018581526020018481526020018381526020018281525060015f805481526020019081526020015f205f820151815f01556020820151816001019081610c0b9190611a18565b5060408201518160020155606082015181600301556080820151816004019081610c359190611a18565b5060a082015181600501559050505050505050565b6001602052805f5260405f205f91509050805f015490806001018054610c6f9061184b565b80601f0160208091040260200160405190810160405280929190818152602001828054610c9b9061184b565b8015610ce65780601f10610cbd57610100808354040283529160200191610ce6565b820191905f5260205f20905b815481529060010190602001808311610cc957829003601f168201915b505050505090806002015490806003015490806004018054610d079061184b565b80601f0160208091040260200160405190810160405280929190818152602001828054610d339061184b565b8015610d7e5780601f10610d5557610100808354040283529160200191610d7e565b820191905f5260205f20905b815481529060010190602001808311610d6157829003601f168201915b5050505050908060050154905086565b5f5481565b5f8060025f8581526020019081526020015f205f8473ffffffffffffffffffffffffffffffffffffffff1673ffffffffffffffffffffffffffffffffffffffff1681526020019081526020015f2090505f73ffffffffffffffffffffffffffffffffffffffff16815f015f9054906101000a900473ffffffffffffffffffffffffffffffffffffffff1673ffffffffffffffffffffffffffffffffffffffff1603610e73576040517f08c379a0000000000000000000000000000000000000000000000000000000008152600401610e6a90611b31565b60405180910390fd5b5f60015f8681526020019081526020015f20600501548260010154610e9891906115b8565b90508042119250505092915050565b60035f9054906101000a900473ffffffffffffffffffffffffffffffffffffffff1681565b5f604051905090565b5f80fd5b5f80fd5b5f819050919050565b610eef81610edd565b8114610ef9575f80fd5b50565b5f81359050610f0a81610ee6565b92915050565b5f73ffffffffffffffffffffffffffffffffffffffff82169050919050565b5f610f3982610f10565b9050919050565b610f4981610f2f565b8114610f53575f80fd5b50565b5f81359050610f6481610f40565b92915050565b5f8060408385031215610f8057610f7f610ed5565b5b5f610f8d85828601610efc565b9250506020610f9e85828601610f56565b9150509250929050565b610fb181610f2f565b82525050565b610fc081610edd565b82525050565b5f8115159050919050565b610fda81610fc6565b82525050565b5f606082019050610ff35f830186610fa8565b6110006020830185610fb7565b61100d6040830184610fd1565b949350505050565b5f6020828403121561102a57611029610ed5565b5b5f61103784828501610efc565b91505092915050565b5f6020820190506110535f830184610fb7565b92915050565b5f80fd5b5f80fd5b5f601f19601f8301169050919050565b7f4e487b71000000000000000000000000000000000000000000000000000000005f52604160045260245ffd5b6110a782611061565b810181811067ffffffffffffffff821117156110c6576110c5611071565b5b80604052505050565b5f6110d8610ecc565b90506110e4828261109e565b919050565b5f67ffffffffffffffff82111561110357611102611071565b5b61110c82611061565b9050602081019050919050565b828183375f83830152505050565b5f611139611134846110e9565b6110cf565b9050828152602081018484840111156111555761115461105d565b5b611160848285611119565b509392505050565b5f82601f83011261117c5761117b611059565b5b813561118c848260208601611127565b91505092915050565b5f805f805f60a086880312156111ae576111ad610ed5565b5b5f86013567ffffffffffffffff8111156111cb576111ca610ed9565b5b6111d788828901611168565b95505060206111e888828901610efc565b94505060406111f988828901610efc565b935050606086013567ffffffffffffffff81111561121a57611219610ed9565b5b61122688828901611168565b925050608061123788828901610efc565b9150509295509295909350565b5f81519050919050565b5f82825260208201905092915050565b5f5b8381101561127b578082015181840152602081019050611260565b5f8484015250505050565b5f61129082611244565b61129a818561124e565b93506112aa81856020860161125e565b6112b381611061565b840191505092915050565b5f60c0820190506112d15f830189610fb7565b81810360208301526112e38188611286565b90506112f26040830187610fb7565b6112ff6060830186610fb7565b81810360808301526113118185611286565b905061132060a0830184610fb7565b979650505050505050565b5f60208201905061133e5f830184610fd1565b92915050565b5f6020820190506113575f830184610fa8565b92915050565b7f4f6e6c792061646d696e2063616e2063616c6c20746869732e000000000000005f82015250565b5f61139160198361124e565b915061139c8261135d565b602082019050919050565b5f6020820190508181035f8301526113be81611385565b9050919050565b7f4e6f74206120706f6c69637920686f6c6465722e0000000000000000000000005f82015250565b5f6113f960148361124e565b9150611404826113c5565b602082019050919050565b5f6020820190508181035f830152611426816113ed565b9050919050565b7f506f6c69637920616c726561647920636c61696d65642e0000000000000000005f82015250565b5f61146160178361124e565b915061146c8261142d565b602082019050919050565b5f6020820190508181035f83015261148e81611455565b9050919050565b7f4e6f7420656e6f7567682066756e647320696e20636f6e747261637420746f205f8201527f70617920636f7665726167652e00000000000000000000000000000000000000602082015250565b5f6114ef602d8361124e565b91506114fa82611495565b604082019050919050565b5f6020820190508181035f83015261151c816114e3565b9050919050565b7f506f6c6963792068617320616c7265616479206265656e20636c61696d65642e5f82015250565b5f61155760208361124e565b915061156282611523565b602082019050919050565b5f6020820190508181035f8301526115848161154b565b9050919050565b7f4e487b71000000000000000000000000000000000000000000000000000000005f52601160045260245ffd5b5f6115c282610edd565b91506115cd83610edd565b92508282019050808211156115e5576115e461158b565b5b92915050565b7f5072656d69756d207061796d656e74206973206e6f7420796574206475652e005f82015250565b5f61161f601f8361124e565b915061162a826115eb565b602082019050919050565b5f6020820190508181035f83015261164c81611613565b9050919050565b7f4e6f7420656e6f75676820457468657220746f2070617920746865207072656d5f8201527f69756d2e00000000000000000000000000000000000000000000000000000000602082015250565b5f6116ad60248361124e565b91506116b882611653565b604082019050919050565b5f6020820190508181035f8301526116da816116a1565b9050919050565b7f4e6f7420656e6f75676820457468657220746f20627579207468697320706f6c5f8201527f6963792e00000000000000000000000000000000000000000000000000000000602082015250565b5f61173b60248361124e565b9150611746826116e1565b604082019050919050565b5f6020820190508181035f8301526117688161172f565b9050919050565b7f596f7520616c7265616479206f776e207468697320706f6c6963792e000000005f82015250565b5f6117a3601c8361124e565b91506117ae8261176f565b602082019050919050565b5f6020820190508181035f8301526117d081611797565b9050919050565b5f6117e182610edd565b91507fffffffffffffffffffffffffffffffffffffffffffffffffffffffffffffffff82036118135761181261158b565b5b600182019050919050565b7f4e487b71000000000000000000000000000000000000000000000000000000005f52602260045260245ffd5b5f600282049050600182168061186257607f821691505b6020821081036118755761187461181e565b5b50919050565b5f819050815f5260205f209050919050565b5f6020601f8301049050919050565b5f82821b905092915050565b5f600883026118d77fffffffffffffffffffffffffffffffffffffffffffffffffffffffffffffffff8261189c565b6118e1868361189c565b95508019841693508086168417925050509392505050565b5f819050919050565b5f61191c61191761191284610edd565b6118f9565b610edd565b9050919050565b5f819050919050565b61193583611902565b61194961194182611923565b8484546118a8565b825550505050565b5f90565b61195d611951565b61196881848461192c565b505050565b5b8181101561198b576119805f82611955565b60018101905061196e565b5050565b601f8211156119d0576119a18161187b565b6119aa8461188d565b810160208510156119b9578190505b6119cd6119c58561188d565b83018261196d565b50505b505050565b5f82821c905092915050565b5f6119f05f19846008026119d5565b1980831691505092915050565b5f611a0883836119e1565b9150826002028217905092915050565b611a2182611244565b67ffffffffffffffff811115611a3a57611a39611071565b5b611a44825461184b565b611a4f82828561198f565b5f60209050601f831160018114611a80575f8415611a6e578287015190505b611a7885826119fd565b865550611adf565b601f198416611a8e8661187b565b5f5b82811015611ab557848901518255600182019150602085019450602081019050611a90565b86831015611ad25784890151611ace601f8916826119e1565b8355505b6001600288020188555050505b505050505050565b7f4e6f74206120706f6c69637920686f6c646572000000000000000000000000005f82015250565b5f611b1b60138361124e565b9150611b2682611ae7565b602082019050919050565b5f6020820190508181035f830152611b4881611b0f565b905091905056fea2646970667358221220303d78f767a8c5a64680d8b41b1d3955eeb7e28a605c9fdcc4f21ee1964e2d9564736f6c63430008150033",
  "immutableReferences": {},
  "source": "// SPDX-License-Identifier: MIT\r\npragma solidity ^0.8.21;\r\n\r\ncontract Insurance {\r\n    struct PolicyHolder {\r\n        address buyer;\r\n        uint lastPaymentTimestamp;\r\n        bool claimed;\r\n    }\r\n\r\n    struct Policy {\r\n        uint id;\r\n        string name;\r\n        uint price;\r\n        uint coverageAmount;\r\n        string coverage;\r\n        uint premiumDuration;\r\n    }\r\n\r\n    uint public policyCount = 0;\r\n    mapping(uint => Policy) public policies;\r\n    // Map policy ID to buyer address to PolicyHolder details\r\n    mapping(uint => mapping(address => PolicyHolder)) public policyHolders;\r\n    address public admin;\r\n\r\n    constructor() {\r\n        admin = msg.sender;\r\n    }\r\n\r\n    modifier onlyAdmin() {\r\n        require(msg.sender == admin, \"Only admin can call this.\");\r\n        _;\r\n    }\r\n\r\n    modifier onlyPolicyHolder(uint _id) {\r\n        require(policyHolders[_id][msg.sender].buyer != address(0), \"Not a policy holder.\");\r\n        _;\r\n    }\r\n\r\n    function createPolicy(\r\n        string memory _name, \r\n        uint _price, \r\n        uint _coverageAmount, \r\n        string memory _coverage, \r\n        uint _premiumDuration\r\n    ) public onlyAdmin {\r\n        policyCount++;\r\n        policies[policyCount] = Policy(\r\n            policyCount, \r\n            _name, \r\n            _price, \r\n            _coverageAmount, \r\n            _coverage, \r\n            _premiumDuration\r\n        );\r\n    }\r\n\r\n    function buyPolicy(uint _id) public payable {\r\n        Policy storage policy = policies[_id];\r\n        require(msg.value >= policy.price, \"Not enough Ether to buy this policy.\");\r\n        require(policyHolders[_id][msg.sender].buyer == address(0), \"You already own this policy.\");\r\n        \r\n        policyHolders[_id][msg.sender] = PolicyHolder(\r\n            msg.sender,\r\n            block.timestamp,\r\n            false\r\n        );\r\n    }\r\n\r\n    function payPremium(uint _id) public payable onlyPolicyHolder(_id) {\r\n        Policy storage policy = policies[_id];\r\n        PolicyHolder storage holder = policyHolders[_id][msg.sender];\r\n        require(!holder.claimed, \"Policy has already been claimed.\");\r\n        \r\n        uint nextDueDate = holder.lastPaymentTimestamp + policy.premiumDuration;\r\n        require(block.timestamp >= nextDueDate, \"Premium payment is not yet due.\");\r\n        require(msg.value >= policy.price, \"Not enough Ether to pay the premium.\");\r\n\r\n        holder.lastPaymentTimestamp = block.timestamp;\r\n    }\r\n\r\n    function claimPolicy(uint _id) public onlyPolicyHolder(_id) {\r\n        Policy storage policy = policies[_id];\r\n        PolicyHolder storage holder = policyHolders[_id][msg.sender];\r\n        require(!holder.claimed, \"Policy already claimed.\");\r\n        require(address(this).balance >= policy.coverageAmount, \"Not enough funds in contract to pay coverage.\");\r\n\r\n        holder.claimed = true;\r\n        payable(msg.sender).transfer(policy.coverageAmount);\r\n    }\r\n\r\n    function isOverdue(uint _id, address _buyer) public view returns (bool) {\r\n        PolicyHolder storage holder = policyHolders[_id][_buyer];\r\n        require(holder.buyer != address(0), \"Not a policy holder\");\r\n        uint nextDueDate = holder.lastPaymentTimestamp + policies[_id].premiumDuration;\r\n        return block.timestamp > nextDueDate;\r\n    }\r\n\r\n    function getContractBalance() public view onlyAdmin returns (uint) {\r\n        return address(this).balance;\r\n    }\r\n\r\n    function withdrawFunds() public onlyAdmin {\r\n        payable(admin).transfer(address(this).balance);\r\n    }\r\n}",
  "sourcePath": "C:\\Users\\MB 540WS\\medicare\\Medichain-AIWF\\contracts\\Insurance.sol",
  "compiler": {
    "name": "solc",
    "version": "0.8.21+commit.d9974bed.Emscripten.clang"
  },
  "schemaVersion": "3.4.16",
  "updatedAt": "2025-04-02T17:18:26.438Z",
  "networkType": "ethereum",
  "devdoc": {
    "kind": "dev",
    "methods": {},
    "version": 1
  },
  "userdoc": {
    "kind": "user",
    "methods": {},
    "version": 1
  }
}