{
  "contractName": "Insurance",
  "abi": [
    {
      "inputs": [],
      "stateMutability": "nonpayable",
      "type": "constructor"
    },
    {
      "anonymous": false,
      "inputs": [
        {
          "indexed": false,
          "internalType": "uint256",
          "name": "policyId",
          "type": "uint256"
        },
        {
          "indexed": false,
          "internalType": "address",
          "name": "policyHolder",
          "type": "address"
        }
      ],
      "name": "PolicyClaimed",
      "type": "event"
    },
    {
      "anonymous": false,
      "inputs": [
        {
          "indexed": false,
          "internalType": "uint256",
          "name": "policyId",
          "type": "uint256"
        },
        {
          "indexed": false,
          "internalType": "address",
          "name": "policyHolder",
          "type": "address"
        },
        {
          "indexed": false,
          "internalType": "uint256",
          "name": "premium",
          "type": "uint256"
        },
        {
          "indexed": false,
          "internalType": "uint256",
          "name": "coverageAmount",
          "type": "uint256"
        },
        {
          "indexed": false,
          "internalType": "string",
          "name": "ipfsHash",
          "type": "string"
        }
      ],
      "name": "PolicyCreated",
      "type": "event"
    },
    {
      "inputs": [],
      "name": "insurer",
      "outputs": [
        {
          "internalType": "address",
          "name": "",
          "type": "address"
        }
      ],
      "stateMutability": "view",
      "type": "function",
      "constant": true
    },
    {
      "inputs": [
        {
          "internalType": "uint256",
          "name": "",
          "type": "uint256"
        }
      ],
      "name": "policies",
      "outputs": [
        {
          "internalType": "uint256",
          "name": "policyId",
          "type": "uint256"
        },
        {
          "internalType": "address",
          "name": "policyHolder",
          "type": "address"
        },
        {
          "internalType": "uint256",
          "name": "premium",
          "type": "uint256"
        },
        {
          "internalType": "uint256",
          "name": "coverageAmount",
          "type": "uint256"
        },
        {
          "internalType": "bool",
          "name": "isClaimed",
          "type": "bool"
        },
        {
          "internalType": "string",
          "name": "ipfsHash",
          "type": "string"
        }
      ],
      "stateMutability": "view",
      "type": "function",
      "constant": true
    },
    {
      "inputs": [],
      "name": "policyCount",
      "outputs": [
        {
          "internalType": "uint256",
          "name": "",
          "type": "uint256"
        }
      ],
      "stateMutability": "view",
      "type": "function",
      "constant": true
    },
    {
      "inputs": [
        {
          "internalType": "address",
          "name": "_policyHolder",
          "type": "address"
        },
        {
          "internalType": "uint256",
          "name": "_premium",
          "type": "uint256"
        },
        {
          "internalType": "uint256",
          "name": "_coverageAmount",
          "type": "uint256"
        },
        {
          "internalType": "string",
          "name": "_ipfsHash",
          "type": "string"
        }
      ],
      "name": "createPolicy",
      "outputs": [],
      "stateMutability": "nonpayable",
      "type": "function"
    },
    {
      "inputs": [
        {
          "internalType": "uint256",
          "name": "_policyId",
          "type": "uint256"
        }
      ],
      "name": "claimPolicy",
      "outputs": [],
      "stateMutability": "nonpayable",
      "type": "function"
    }
  ],
  "bytecode": "0x6080604052600060015534801561001557600080fd5b50336000806101000a81548173ffffffffffffffffffffffffffffffffffffffff021916908373ffffffffffffffffffffffffffffffffffffffff160217905550610c8e806100656000396000f3fe608060405234801561001057600080fd5b50600436106100575760003560e01c80630d7be2451461005c5780632aea118d14610078578063d3e8948314610094578063dbc837c5146100c9578063de54d429146100e7575b600080fd5b61007660048036038101906100719190610699565b610105565b005b610092600480360381019061008d9190610714565b6102f4565b005b6100ae60048036038101906100a99190610714565b610449565b6040516100c096959493929190610948565b60405180910390f35b6100d161053a565b6040516100de9190610889565b60405180910390f35b6100ef61055e565b6040516100fc9190610904565b60405180910390f35b60008054906101000a900473ffffffffffffffffffffffffffffffffffffffff1673ffffffffffffffffffffffffffffffffffffffff163373ffffffffffffffffffffffffffffffffffffffff1614610193576040517f08c379a000000000000000000000000000000000000000000000000000000000815260040161018a906108c4565b60405180910390fd5b600160008154809291906101a690610b43565b91905055506040518060c0016040528060015481526020018573ffffffffffffffffffffffffffffffffffffffff168152602001848152602001838152602001600015158152602001828152506002600060015481526020019081526020016000206000820151816000015560208201518160010160006101000a81548173ffffffffffffffffffffffffffffffffffffffff021916908373ffffffffffffffffffffffffffffffffffffffff160217905550604082015181600201556060820151816003015560808201518160040160006101000a81548160ff02191690831515021790555060a08201518160050190805190602001906102a9929190610564565b509050507fb125fde4284254e7f0e5b0b580e3d0b4edeb74741bbc94196386f1a56d9c9ca4600154858585856040516102e69594939291906109b0565b60405180910390a150505050565b60006002600083815260200190815260200160002090503373ffffffffffffffffffffffffffffffffffffffff168160010160009054906101000a900473ffffffffffffffffffffffffffffffffffffffff1673ffffffffffffffffffffffffffffffffffffffff161461039d576040517f08c379a0000000000000000000000000000000000000000000000000000000008152600401610394906108a4565b60405180910390fd5b8060040160009054906101000a900460ff16156103ef576040517f08c379a00000000000000000000000000000000000000000000000000000000081526004016103e6906108e4565b60405180910390fd5b60018160040160006101000a81548160ff0219169083151502179055507fc7ec6d9a759e329b525c568d4a31eadfd4d47a50a11498317356b63536972cff823360405161043d92919061091f565b60405180910390a15050565b60026020528060005260406000206000915090508060000154908060010160009054906101000a900473ffffffffffffffffffffffffffffffffffffffff16908060020154908060030154908060040160009054906101000a900460ff16908060050180546104b790610b11565b80601f01602080910402602001604051908101604052809291908181526020018280546104e390610b11565b80156105305780601f1061050557610100808354040283529160200191610530565b820191906000526020600020905b81548152906001019060200180831161051357829003601f168201915b5050505050905086565b60008054906101000a900473ffffffffffffffffffffffffffffffffffffffff1681565b60015481565b82805461057090610b11565b90600052602060002090601f01602090048101928261059257600085556105d9565b82601f106105ab57805160ff19168380011785556105d9565b828001600101855582156105d9579182015b828111156105d85782518255916020019190600101906105bd565b5b5090506105e691906105ea565b5090565b5b808211156106035760008160009055506001016105eb565b5090565b600061061a61061584610a3b565b610a0a565b90508281526020810184848401111561063257600080fd5b61063d848285610acf565b509392505050565b60008135905061065481610c2a565b92915050565b600082601f83011261066b57600080fd5b813561067b848260208601610607565b91505092915050565b60008135905061069381610c41565b92915050565b600080600080608085870312156106af57600080fd5b60006106bd87828801610645565b94505060206106ce87828801610684565b93505060406106df87828801610684565b925050606085013567ffffffffffffffff8111156106fc57600080fd5b6107088782880161065a565b91505092959194509250565b60006020828403121561072657600080fd5b600061073484828501610684565b91505092915050565b61074681610a87565b82525050565b61075581610a99565b82525050565b600061076682610a6b565b6107708185610a76565b9350610780818560208601610ade565b61078981610c19565b840191505092915050565b60006107a1601d83610a76565b91507f596f7520617265206e6f742074686520706f6c696379686f6c6465722e0000006000830152602082019050919050565b60006107e1602583610a76565b91507f4f6e6c7920696e73757265722063616e20706572666f726d207468697320616360008301527f74696f6e2e0000000000000000000000000000000000000000000000000000006020830152604082019050919050565b6000610847601783610a76565b91507f506f6c69637920616c726561647920636c61696d65642e0000000000000000006000830152602082019050919050565b61088381610ac5565b82525050565b600060208201905061089e600083018461073d565b92915050565b600060208201905081810360008301526108bd81610794565b9050919050565b600060208201905081810360008301526108dd816107d4565b9050919050565b600060208201905081810360008301526108fd8161083a565b9050919050565b6000602082019050610919600083018461087a565b92915050565b6000604082019050610934600083018561087a565b610941602083018461073d565b9392505050565b600060c08201905061095d600083018961087a565b61096a602083018861073d565b610977604083018761087a565b610984606083018661087a565b610991608083018561074c565b81810360a08301526109a3818461075b565b9050979650505050505050565b600060a0820190506109c5600083018861087a565b6109d2602083018761073d565b6109df604083018661087a565b6109ec606083018561087a565b81810360808301526109fe818461075b565b90509695505050505050565b6000604051905081810181811067ffffffffffffffff82111715610a3157610a30610bea565b5b8060405250919050565b600067ffffffffffffffff821115610a5657610a55610bea565b5b601f19601f8301169050602081019050919050565b600081519050919050565b600082825260208201905092915050565b6000610a9282610aa5565b9050919050565b60008115159050919050565b600073ffffffffffffffffffffffffffffffffffffffff82169050919050565b6000819050919050565b82818337600083830152505050565b60005b83811015610afc578082015181840152602081019050610ae1565b83811115610b0b576000848401525b50505050565b60006002820490506001821680610b2957607f821691505b60208210811415610b3d57610b3c610bbb565b5b50919050565b6000610b4e82610ac5565b91507fffffffffffffffffffffffffffffffffffffffffffffffffffffffffffffffff821415610b8157610b80610b8c565b5b600182019050919050565b7f4e487b7100000000000000000000000000000000000000000000000000000000600052601160045260246000fd5b7f4e487b7100000000000000000000000000000000000000000000000000000000600052602260045260246000fd5b7f4e487b7100000000000000000000000000000000000000000000000000000000600052604160045260246000fd5b6000601f19601f8301169050919050565b610c3381610a87565b8114610c3e57600080fd5b50565b610c4a81610ac5565b8114610c5557600080fd5b5056fea264697066735822122023c3bf388f4fe5f7abe25e1d88a74ee03608a57f900dc4ad55d673eb62862bf764736f6c63430008000033",
  "immutableReferences": {},
  "source": "// SPDX-License-Identifier: MIT\r\npragma solidity ^0.8.0;\r\n\r\ncontract Insurance {\r\n    address public insurer;\r\n    uint256 public policyCount = 0;\r\n\r\n    struct Policy {\r\n        uint256 policyId;\r\n        address policyHolder;\r\n        uint256 premium;\r\n        uint256 coverageAmount;\r\n        bool isClaimed;\r\n        string ipfsHash; // IPFS Hash of policy document\r\n    }\r\n\r\n    mapping(uint256 => Policy) public policies;\r\n\r\n    event PolicyCreated(uint256 policyId, address policyHolder, uint256 premium, uint256 coverageAmount, string ipfsHash);\r\n    event PolicyClaimed(uint256 policyId, address policyHolder);\r\n\r\n    constructor() {\r\n        insurer = msg.sender;\r\n    }\r\n\r\n    modifier onlyInsurer() {\r\n        require(msg.sender == insurer, \"Only insurer can perform this action.\");\r\n        _;\r\n    }\r\n\r\n    function createPolicy(address _policyHolder, uint256 _premium, uint256 _coverageAmount, string memory _ipfsHash) public onlyInsurer {\r\n        policyCount++;\r\n        policies[policyCount] = Policy(policyCount, _policyHolder, _premium, _coverageAmount, false, _ipfsHash);\r\n        emit PolicyCreated(policyCount, _policyHolder, _premium, _coverageAmount, _ipfsHash);\r\n    }\r\n\r\n    function claimPolicy(uint256 _policyId) public {\r\n        Policy storage policy = policies[_policyId];\r\n        require(policy.policyHolder == msg.sender, \"You are not the policyholder.\");\r\n        require(!policy.isClaimed, \"Policy already claimed.\");\r\n        policy.isClaimed = true;\r\n        emit PolicyClaimed(_policyId, msg.sender);\r\n    }\r\n}\r\n",
  "sourcePath": "C:\\Users\\MB 540WS\\medicare\\Medichain-AIWF\\contracts\\Insurance.sol",
  "compiler": {
    "name": "solc",
    "version": "0.8.0+commit.c7dfd78e.Emscripten.clang"
  },
  "schemaVersion": "3.4.16",
  "updatedAt": "2025-03-22T01:27:09.537Z",
  "networkType": "ethereum",
  "devdoc": {
    "kind": "dev",
    "methods": {},
    "version": 1
  },
  "userdoc": {
    "kind": "user",
    "methods": {},
    "version": 1
  }
}